{
  "contractName": "BookContract",
  "abi": [
    {
      "inputs": [],
      "stateMutability": "nonpayable",
      "type": "constructor"
    },
    {
      "inputs": [
        {
          "internalType": "uint256",
          "name": "",
          "type": "uint256"
        }
      ],
      "name": "books",
      "outputs": [
        {
          "internalType": "uint256",
          "name": "id",
          "type": "uint256"
        },
        {
          "internalType": "string",
          "name": "title",
          "type": "string"
        },
        {
          "internalType": "string",
          "name": "author",
          "type": "string"
        },
        {
          "internalType": "string",
          "name": "description",
          "type": "string"
        },
        {
          "internalType": "uint256",
          "name": "createdAt",
          "type": "uint256"
        }
      ],
      "stateMutability": "view",
      "type": "function",
      "constant": true
    },
    {
      "inputs": [
        {
          "internalType": "string",
          "name": "_title",
          "type": "string"
        },
        {
          "internalType": "string",
          "name": "_description",
          "type": "string"
        },
        {
          "internalType": "string",
          "name": "_author",
          "type": "string"
        }
      ],
      "name": "createBook",
      "outputs": [],
      "stateMutability": "nonpayable",
      "type": "function"
    },
    {
      "inputs": [
        {
          "internalType": "uint256",
          "name": "_id",
          "type": "uint256"
        },
        {
          "internalType": "string",
          "name": "_title",
          "type": "string"
        },
        {
          "internalType": "string",
          "name": "_description",
          "type": "string"
        }
      ],
      "name": "updateBook",
      "outputs": [],
      "stateMutability": "nonpayable",
      "type": "function"
    },
    {
      "inputs": [
        {
          "internalType": "uint256",
          "name": "_id",
          "type": "uint256"
        }
      ],
      "name": "deleteBook",
      "outputs": [],
      "stateMutability": "nonpayable",
      "type": "function"
    },
    {
      "inputs": [
        {
          "internalType": "uint256",
          "name": "_id",
          "type": "uint256"
        }
      ],
      "name": "findBookIndex",
      "outputs": [
        {
          "internalType": "uint256",
          "name": "",
          "type": "uint256"
        }
      ],
      "stateMutability": "view",
      "type": "function",
      "constant": true
    }
  ],
  "bytecode": "0x608060405260006001553480156200001657600080fd5b50620000ae6040518060400160405280601181526020017f4c6f7264206f66207468652052696e677300000000000000000000000000000081525060405180610120016040528060e981526020016200128f60e991396040518060400160405280600e81526020017f4a2e522e522e20546f6c6b69656e000000000000000000000000000000000000815250620000b460201b60201c565b6200054c565b6040518060a001604052806001548152602001848152602001828152602001838152602001428152506000806001548152602001908152602001600020600082015181600001556020820151816001019081620001129190620003e9565b5060408201518160020190816200012a9190620003e9565b506060820151816003019081620001429190620003e9565b5060808201518160040155905050600160008154809291906200016590620004ff565b9190505550505050565b600081519050919050565b7f4e487b7100000000000000000000000000000000000000000000000000000000600052604160045260246000fd5b7f4e487b7100000000000000000000000000000000000000000000000000000000600052602260045260246000fd5b60006002820490506001821680620001f157607f821691505b602082108103620002075762000206620001a9565b5b50919050565b60008190508160005260206000209050919050565b60006020601f8301049050919050565b600082821b905092915050565b600060088302620002717fffffffffffffffffffffffffffffffffffffffffffffffffffffffffffffffff8262000232565b6200027d868362000232565b95508019841693508086168417925050509392505050565b6000819050919050565b6000819050919050565b6000620002ca620002c4620002be8462000295565b6200029f565b62000295565b9050919050565b6000819050919050565b620002e683620002a9565b620002fe620002f582620002d1565b8484546200023f565b825550505050565b600090565b6200031562000306565b62000322818484620002db565b505050565b5b818110156200034a576200033e6000826200030b565b60018101905062000328565b5050565b601f821115620003995762000363816200020d565b6200036e8462000222565b810160208510156200037e578190505b620003966200038d8562000222565b83018262000327565b50505b505050565b600082821c905092915050565b6000620003be600019846008026200039e565b1980831691505092915050565b6000620003d98383620003ab565b9150826002028217905092915050565b620003f4826200016f565b67ffffffffffffffff81111562000410576200040f6200017a565b5b6200041c8254620001d8565b620004298282856200034e565b600060209050601f8311600181146200046157600084156200044c578287015190505b620004588582620003cb565b865550620004c8565b601f19841662000471866200020d565b60005b828110156200049b5784890151825560018201915060208501945060208101905062000474565b86831015620004bb5784890151620004b7601f891682620003ab565b8355505b6001600288020188555050505b505050505050565b7f4e487b7100000000000000000000000000000000000000000000000000000000600052601160045260246000fd5b60006200050c8262000295565b91507fffffffffffffffffffffffffffffffffffffffffffffffffffffffffffffffff8203620005415762000540620004d0565b5b600182019050919050565b610d33806200055c6000396000f3fe608060405234801561001057600080fd5b50600436106100575760003560e01c80632151fb381461005c5780634c7e840e1461007857806368744046146100945780637909086b146100c8578063a65139dc146100f8575b600080fd5b61007660048036038101906100719190610586565b610114565b005b610092600480360381019061008d91906106f9565b61017a565b005b6100ae60048036038101906100a99190610586565b61022d565b6040516100bf95949392919061082e565b60405180910390f35b6100e260048036038101906100dd9190610586565b6103fb565b6040516100ef9190610896565b60405180910390f35b610112600480360381019061010d91906108b1565b610486565b005b600061011f826103fb565b905060008082815260200190815260200160002060008082016000905560018201600061014c91906104df565b60028201600061015c91906104df565b60038201600061016c91906104df565b600482016000905550505050565b6040518060a0016040528060015481526020018481526020018281526020018381526020014281525060008060015481526020019081526020016000206000820151816000015560208201518160010190816101d69190610b48565b5060408201518160020190816101ec9190610b48565b5060608201518160030190816102029190610b48565b50608082015181600401559050506001600081548092919061022390610c49565b9190505550505050565b60006020528060005260406000206000915090508060000154908060010180546102569061096b565b80601f01602080910402602001604051908101604052809291908181526020018280546102829061096b565b80156102cf5780601f106102a4576101008083540402835291602001916102cf565b820191906000526020600020905b8154815290600101906020018083116102b257829003601f168201915b5050505050908060020180546102e49061096b565b80601f01602080910402602001604051908101604052809291908181526020018280546103109061096b565b801561035d5780601f106103325761010080835404028352916020019161035d565b820191906000526020600020905b81548152906001019060200180831161034057829003601f168201915b5050505050908060030180546103729061096b565b80601f016020809104026020016040519081016040528092919081815260200182805461039e9061096b565b80156103eb5780601f106103c0576101008083540402835291602001916103eb565b820191906000526020600020905b8154815290600101906020018083116103ce57829003601f168201915b5050505050908060040154905085565b600080600090505b600154811015610445578260008083815260200190815260200160002060000154036104325780915050610481565b808061043d90610c49565b915050610403565b506040517f08c379a000000000000000000000000000000000000000000000000000000000815260040161047890610cdd565b60405180910390fd5b919050565b6000610491846103fb565b90508260008083815260200190815260200160002060010190816104b59190610b48565b508160008083815260200190815260200160002060030190816104d89190610b48565b5050505050565b5080546104eb9061096b565b6000825580601f106104fd575061051c565b601f01602090049060005260206000209081019061051b919061051f565b5b50565b5b80821115610538576000816000905550600101610520565b5090565b6000604051905090565b600080fd5b600080fd5b6000819050919050565b61056381610550565b811461056e57600080fd5b50565b6000813590506105808161055a565b92915050565b60006020828403121561059c5761059b610546565b5b60006105aa84828501610571565b91505092915050565b600080fd5b600080fd5b6000601f19601f8301169050919050565b7f4e487b7100000000000000000000000000000000000000000000000000000000600052604160045260246000fd5b610606826105bd565b810181811067ffffffffffffffff82111715610625576106246105ce565b5b80604052505050565b600061063861053c565b905061064482826105fd565b919050565b600067ffffffffffffffff821115610664576106636105ce565b5b61066d826105bd565b9050602081019050919050565b82818337600083830152505050565b600061069c61069784610649565b61062e565b9050828152602081018484840111156106b8576106b76105b8565b5b6106c384828561067a565b509392505050565b600082601f8301126106e0576106df6105b3565b5b81356106f0848260208601610689565b91505092915050565b60008060006060848603121561071257610711610546565b5b600084013567ffffffffffffffff8111156107305761072f61054b565b5b61073c868287016106cb565b935050602084013567ffffffffffffffff81111561075d5761075c61054b565b5b610769868287016106cb565b925050604084013567ffffffffffffffff81111561078a5761078961054b565b5b610796868287016106cb565b9150509250925092565b6107a981610550565b82525050565b600081519050919050565b600082825260208201905092915050565b60005b838110156107e95780820151818401526020810190506107ce565b60008484015250505050565b6000610800826107af565b61080a81856107ba565b935061081a8185602086016107cb565b610823816105bd565b840191505092915050565b600060a08201905061084360008301886107a0565b818103602083015261085581876107f5565b9050818103604083015261086981866107f5565b9050818103606083015261087d81856107f5565b905061088c60808301846107a0565b9695505050505050565b60006020820190506108ab60008301846107a0565b92915050565b6000806000606084860312156108ca576108c9610546565b5b60006108d886828701610571565b935050602084013567ffffffffffffffff8111156108f9576108f861054b565b5b610905868287016106cb565b925050604084013567ffffffffffffffff8111156109265761092561054b565b5b610932868287016106cb565b9150509250925092565b7f4e487b7100000000000000000000000000000000000000000000000000000000600052602260045260246000fd5b6000600282049050600182168061098357607f821691505b6020821081036109965761099561093c565b5b50919050565b60008190508160005260206000209050919050565b60006020601f8301049050919050565b600082821b905092915050565b6000600883026109fe7fffffffffffffffffffffffffffffffffffffffffffffffffffffffffffffffff826109c1565b610a0886836109c1565b95508019841693508086168417925050509392505050565b6000819050919050565b6000610a45610a40610a3b84610550565b610a20565b610550565b9050919050565b6000819050919050565b610a5f83610a2a565b610a73610a6b82610a4c565b8484546109ce565b825550505050565b600090565b610a88610a7b565b610a93818484610a56565b505050565b5b81811015610ab757610aac600082610a80565b600181019050610a99565b5050565b601f821115610afc57610acd8161099c565b610ad6846109b1565b81016020851015610ae5578190505b610af9610af1856109b1565b830182610a98565b50505b505050565b600082821c905092915050565b6000610b1f60001984600802610b01565b1980831691505092915050565b6000610b388383610b0e565b9150826002028217905092915050565b610b51826107af565b67ffffffffffffffff811115610b6a57610b696105ce565b5b610b74825461096b565b610b7f828285610abb565b600060209050601f831160018114610bb25760008415610ba0578287015190505b610baa8582610b2c565b865550610c12565b601f198416610bc08661099c565b60005b82811015610be857848901518255600182019150602085019450602081019050610bc3565b86831015610c055784890151610c01601f891682610b0e565b8355505b6001600288020188555050505b505050505050565b7f4e487b7100000000000000000000000000000000000000000000000000000000600052601160045260246000fd5b6000610c5482610550565b91507fffffffffffffffffffffffffffffffffffffffffffffffffffffffffffffffff8203610c8657610c85610c1a565b5b600182019050919050565b7f426f6f6b206e6f7420666f756e64000000000000000000000000000000000000600082015250565b6000610cc7600e836107ba565b9150610cd282610c91565b602082019050919050565b60006020820190508181036000830152610cf681610cba565b905091905056fea2646970667358221220aaf9feb838c00884d2b9723d0d5aa66ee8a228930433f5edd7ad44371828face64736f6c63430008130033546865204c6f7264206f66207468652052696e6773206973207468652073616761206f6620612067726f7570206f6620736f6d6574696d65732072656c756374616e74206865726f65732077686f2073657420666f72746820746f207361766520746865697220776f726c642066726f6d20636f6e73756d6d617465206576696c2e20497473206d616e7920776f726c647320616e6420637265617475726573207765726520647261776e2066726f6d20546f6c6b69656e277320657874656e73697665206b6e6f776c65646765206f66207068696c6f6c6f677920616e6420666f6c6b6c6f72652e",
  "immutableReferences": {},
  "source": "// SPDX-License-Identifier: MIT\n\npragma solidity 0.8.19;\n\ncontract BookContract {\n    constructor() {\n        createBook(\n            \"Lord of the Rings\",\n            \"The Lord of the Rings is the saga of a group of sometimes reluctant heroes who set forth to save their world from consummate evil. Its many worlds and creatures were drawn from Tolkien's extensive knowledge of philology and folklore.\",\n            \"J.R.R. Tolkien\"\n        );\n    }\n\n    struct Book {\n        uint id;\n        string title;\n        string author;\n        string description;\n        uint createdAt;\n    }\n\n    mapping(uint => Book) public books;\n\n    uint internal nextBookId = 0;\n\n    function createBook(\n        string memory _title,\n        string memory _description,\n        string memory _author\n    ) public {\n        books[nextBookId] = (\n            Book({\n                id: nextBookId,\n                title: _title,\n                author: _author,\n                description: _description,\n                createdAt: block.timestamp\n            })\n        );\n\n        nextBookId++;\n    }\n\n    function updateBook(\n        uint _id,\n        string memory _title,\n        string memory _description\n    ) public {\n        uint index = findBookIndex(_id);\n\n        books[index].title = _title;\n        books[index].description = _description;\n    }\n\n    function deleteBook(uint _id) public {\n        uint index = findBookIndex(_id);\n\n        delete books[index];\n    }\n\n    function findBookIndex(uint _id) public view returns (uint) {\n        for (uint i = 0; i < nextBookId; i++) {\n            if (books[i].id == _id) {\n                return i;\n            }\n        }\n\n        revert(\"Book not found\");\n    }\n}\n",
  "sourcePath": "/home/genaro/dev/real-projects/books-dapp/contracts/BookContract.sol",
  "compiler": {
    "name": "solc",
    "version": "0.8.19+commit.7dd6d404.Emscripten.clang"
  },
  "schemaVersion": "3.4.14",
  "updatedAt": "2023-07-07T22:14:44.499Z",
  "networkType": "ethereum",
  "devdoc": {
    "kind": "dev",
    "methods": {},
    "version": 1
  },
  "userdoc": {
    "kind": "user",
    "methods": {},
    "version": 1
  }
}