{
  "contractName": "BookContract",
  "abi": [
    {
      "inputs": [
        {
          "internalType": "uint256",
          "name": "",
          "type": "uint256"
        }
      ],
      "name": "books",
      "outputs": [
        {
          "internalType": "uint256",
          "name": "id",
          "type": "uint256"
        },
        {
          "internalType": "string",
          "name": "title",
          "type": "string"
        },
        {
          "internalType": "string",
          "name": "author",
          "type": "string"
        },
        {
          "internalType": "string",
          "name": "description",
          "type": "string"
        },
        {
          "internalType": "uint256",
          "name": "createdAt",
          "type": "uint256"
        }
      ],
      "stateMutability": "view",
      "type": "function",
      "constant": true
    },
    {
      "inputs": [
        {
          "internalType": "string",
          "name": "_title",
          "type": "string"
        },
        {
          "internalType": "string",
          "name": "_description",
          "type": "string"
        },
        {
          "internalType": "string",
          "name": "_author",
          "type": "string"
        }
      ],
      "name": "createBook",
      "outputs": [],
      "stateMutability": "nonpayable",
      "type": "function"
    },
    {
      "inputs": [
        {
          "internalType": "uint256",
          "name": "_bookId",
          "type": "uint256"
        }
      ],
      "name": "getBook",
      "outputs": [
        {
          "components": [
            {
              "internalType": "uint256",
              "name": "id",
              "type": "uint256"
            },
            {
              "internalType": "string",
              "name": "title",
              "type": "string"
            },
            {
              "internalType": "string",
              "name": "author",
              "type": "string"
            },
            {
              "internalType": "string",
              "name": "description",
              "type": "string"
            },
            {
              "internalType": "uint256",
              "name": "createdAt",
              "type": "uint256"
            }
          ],
          "internalType": "struct BookContract.Book",
          "name": "",
          "type": "tuple"
        }
      ],
      "stateMutability": "view",
      "type": "function",
      "constant": true
    },
    {
      "inputs": [
        {
          "internalType": "uint256",
          "name": "_id",
          "type": "uint256"
        },
        {
          "internalType": "string",
          "name": "_title",
          "type": "string"
        },
        {
          "internalType": "string",
          "name": "_description",
          "type": "string"
        }
      ],
      "name": "updateBook",
      "outputs": [],
      "stateMutability": "nonpayable",
      "type": "function"
    },
    {
      "inputs": [
        {
          "internalType": "uint256",
          "name": "_bookId",
          "type": "uint256"
        }
      ],
      "name": "findBookIndex",
      "outputs": [
        {
          "internalType": "uint256",
          "name": "",
          "type": "uint256"
        }
      ],
      "stateMutability": "view",
      "type": "function",
      "constant": true
    }
  ],
  "bytecode": "0x6080604052600060015534801561001557600080fd5b50610fb2806100256000396000f3fe608060405234801561001057600080fd5b50600436106100575760003560e01c80634c7e840e1461005c57806368744046146100785780637909086b146100ac578063a65139dc146100dc578063e0ff5b8b146100f8575b600080fd5b61007660048036038101906100719190610816565b610128565b005b610092600480360381019061008d91906108f3565b6101d7565b6040516100a39594939291906109ae565b60405180910390f35b6100c660048036038101906100c191906108f3565b6103a5565b6040516100d39190610a16565b60405180910390f35b6100f660048036038101906100f19190610a31565b610430565b005b610112600480360381019061010d91906108f3565b610489565b60405161011f9190610b99565b60405180910390f35b6040518060a001604052806001600081548092919061014690610bea565b9190505581526020018481526020018281526020018381526020014281525060008060015481526020019081526020016000206000820151816000015560208201518160010190816101989190610e3e565b5060408201518160020190816101ae9190610e3e565b5060608201518160030190816101c49190610e3e565b5060808201518160040155905050505050565b600060205280600052604060002060009150905080600001549080600101805461020090610c61565b80601f016020809104026020016040519081016040528092919081815260200182805461022c90610c61565b80156102795780601f1061024e57610100808354040283529160200191610279565b820191906000526020600020905b81548152906001019060200180831161025c57829003601f168201915b50505050509080600201805461028e90610c61565b80601f01602080910402602001604051908101604052809291908181526020018280546102ba90610c61565b80156103075780601f106102dc57610100808354040283529160200191610307565b820191906000526020600020905b8154815290600101906020018083116102ea57829003601f168201915b50505050509080600301805461031c90610c61565b80601f016020809104026020016040519081016040528092919081815260200182805461034890610c61565b80156103955780601f1061036a57610100808354040283529160200191610395565b820191906000526020600020905b81548152906001019060200180831161037857829003601f168201915b5050505050908060040154905085565b600080600090505b6001548110156103ef578260008083815260200190815260200160002060000154036103dc578091505061042b565b80806103e790610bea565b9150506103ad565b506040517f08c379a000000000000000000000000000000000000000000000000000000000815260040161042290610f5c565b60405180910390fd5b919050565b600061043b846103a5565b905082600080838152602001908152602001600020600101908161045f9190610e3e565b508160008083815260200190815260200160002060030190816104829190610e3e565b5050505050565b61049161068d565b600061049c836103a5565b90506000808281526020019081526020016000206040518060a0016040529081600082015481526020016001820180546104d590610c61565b80601f016020809104026020016040519081016040528092919081815260200182805461050190610c61565b801561054e5780601f106105235761010080835404028352916020019161054e565b820191906000526020600020905b81548152906001019060200180831161053157829003601f168201915b5050505050815260200160028201805461056790610c61565b80601f016020809104026020016040519081016040528092919081815260200182805461059390610c61565b80156105e05780601f106105b5576101008083540402835291602001916105e0565b820191906000526020600020905b8154815290600101906020018083116105c357829003601f168201915b505050505081526020016003820180546105f990610c61565b80601f016020809104026020016040519081016040528092919081815260200182805461062590610c61565b80156106725780601f1061064757610100808354040283529160200191610672565b820191906000526020600020905b81548152906001019060200180831161065557829003601f168201915b50505050508152602001600482015481525050915050919050565b6040518060a0016040528060008152602001606081526020016060815260200160608152602001600081525090565b6000604051905090565b600080fd5b600080fd5b600080fd5b600080fd5b6000601f19601f8301169050919050565b7f4e487b7100000000000000000000000000000000000000000000000000000000600052604160045260246000fd5b610723826106da565b810181811067ffffffffffffffff82111715610742576107416106eb565b5b80604052505050565b60006107556106bc565b9050610761828261071a565b919050565b600067ffffffffffffffff821115610781576107806106eb565b5b61078a826106da565b9050602081019050919050565b82818337600083830152505050565b60006107b96107b484610766565b61074b565b9050828152602081018484840111156107d5576107d46106d5565b5b6107e0848285610797565b509392505050565b600082601f8301126107fd576107fc6106d0565b5b813561080d8482602086016107a6565b91505092915050565b60008060006060848603121561082f5761082e6106c6565b5b600084013567ffffffffffffffff81111561084d5761084c6106cb565b5b610859868287016107e8565b935050602084013567ffffffffffffffff81111561087a576108796106cb565b5b610886868287016107e8565b925050604084013567ffffffffffffffff8111156108a7576108a66106cb565b5b6108b3868287016107e8565b9150509250925092565b6000819050919050565b6108d0816108bd565b81146108db57600080fd5b50565b6000813590506108ed816108c7565b92915050565b600060208284031215610909576109086106c6565b5b6000610917848285016108de565b91505092915050565b610929816108bd565b82525050565b600081519050919050565b600082825260208201905092915050565b60005b8381101561096957808201518184015260208101905061094e565b60008484015250505050565b60006109808261092f565b61098a818561093a565b935061099a81856020860161094b565b6109a3816106da565b840191505092915050565b600060a0820190506109c36000830188610920565b81810360208301526109d58187610975565b905081810360408301526109e98186610975565b905081810360608301526109fd8185610975565b9050610a0c6080830184610920565b9695505050505050565b6000602082019050610a2b6000830184610920565b92915050565b600080600060608486031215610a4a57610a496106c6565b5b6000610a58868287016108de565b935050602084013567ffffffffffffffff811115610a7957610a786106cb565b5b610a85868287016107e8565b925050604084013567ffffffffffffffff811115610aa657610aa56106cb565b5b610ab2868287016107e8565b9150509250925092565b610ac5816108bd565b82525050565b600082825260208201905092915050565b6000610ae78261092f565b610af18185610acb565b9350610b0181856020860161094b565b610b0a816106da565b840191505092915050565b600060a083016000830151610b2d6000860182610abc565b5060208301518482036020860152610b458282610adc565b91505060408301518482036040860152610b5f8282610adc565b91505060608301518482036060860152610b798282610adc565b9150506080830151610b8e6080860182610abc565b508091505092915050565b60006020820190508181036000830152610bb38184610b15565b905092915050565b7f4e487b7100000000000000000000000000000000000000000000000000000000600052601160045260246000fd5b6000610bf5826108bd565b91507fffffffffffffffffffffffffffffffffffffffffffffffffffffffffffffffff8203610c2757610c26610bbb565b5b600182019050919050565b7f4e487b7100000000000000000000000000000000000000000000000000000000600052602260045260246000fd5b60006002820490506001821680610c7957607f821691505b602082108103610c8c57610c8b610c32565b5b50919050565b60008190508160005260206000209050919050565b60006020601f8301049050919050565b600082821b905092915050565b600060088302610cf47fffffffffffffffffffffffffffffffffffffffffffffffffffffffffffffffff82610cb7565b610cfe8683610cb7565b95508019841693508086168417925050509392505050565b6000819050919050565b6000610d3b610d36610d31846108bd565b610d16565b6108bd565b9050919050565b6000819050919050565b610d5583610d20565b610d69610d6182610d42565b848454610cc4565b825550505050565b600090565b610d7e610d71565b610d89818484610d4c565b505050565b5b81811015610dad57610da2600082610d76565b600181019050610d8f565b5050565b601f821115610df257610dc381610c92565b610dcc84610ca7565b81016020851015610ddb578190505b610def610de785610ca7565b830182610d8e565b50505b505050565b600082821c905092915050565b6000610e1560001984600802610df7565b1980831691505092915050565b6000610e2e8383610e04565b9150826002028217905092915050565b610e478261092f565b67ffffffffffffffff811115610e6057610e5f6106eb565b5b610e6a8254610c61565b610e75828285610db1565b600060209050601f831160018114610ea85760008415610e96578287015190505b610ea08582610e22565b865550610f08565b601f198416610eb686610c92565b60005b82811015610ede57848901518255600182019150602085019450602081019050610eb9565b86831015610efb5784890151610ef7601f891682610e04565b8355505b6001600288020188555050505b505050505050565b7f426f6f6b206e6f7420666f756e64000000000000000000000000000000000000600082015250565b6000610f46600e8361093a565b9150610f5182610f10565b602082019050919050565b60006020820190508181036000830152610f7581610f39565b905091905056fea2646970667358221220e02068685faf21016b547586895e5f058538737526449c277ac78b49fc606d7764736f6c63430008130033",
  "immutableReferences": {},
  "source": "// SPDX-License-Identifier: MIT\n\npragma solidity 0.8.19;\n\ncontract BookContract {\n    struct Book {\n        uint id;\n        string title;\n        string author;\n        string description;\n        uint createdAt;\n    }\n\n    mapping(uint => Book) public books;\n\n    uint internal nextBookId = 0;\n\n    function createBook(\n        string memory _title,\n        string memory _description,\n        string memory _author\n    ) public {\n        books[nextBookId] = (\n            Book({\n                id: nextBookId++,\n                title: _title,\n                author: _author,\n                description: _description,\n                createdAt: block.timestamp\n            })\n        );\n    }\n\n    function getBook(uint _bookId) public view returns (Book memory) {\n        uint index = findBookIndex(_bookId);\n\n        return books[index];\n    }\n\n    function updateBook(\n        uint _id,\n        string memory _title,\n        string memory _description\n    ) public {\n        uint index = findBookIndex(_id);\n\n        books[index].title = _title;\n        books[index].description = _description;\n    }\n\n    // function deleteBook() public {}\n\n    function findBookIndex(uint _bookId) public view returns (uint) {\n        for (uint i = 0; i < nextBookId; i++) {\n            if (books[i].id == _bookId) {\n                return i;\n            }\n        }\n\n        revert(\"Book not found\");\n    }\n}\n",
  "sourcePath": "/home/genaro/dev/real-projects/books-dapp/contracts/BookContract.sol",
  "compiler": {
    "name": "solc",
    "version": "0.8.19+commit.7dd6d404.Emscripten.clang"
  },
  "schemaVersion": "3.4.14",
  "updatedAt": "2023-07-07T15:30:28.290Z",
  "networkType": "ethereum",
  "devdoc": {
    "kind": "dev",
    "methods": {},
    "version": 1
  },
  "userdoc": {
    "kind": "user",
    "methods": {},
    "version": 1
  }
}