{
  "contractName": "BookContract",
  "abi": [
    {
      "inputs": [
        {
          "internalType": "uint256",
          "name": "",
          "type": "uint256"
        }
      ],
      "name": "books",
      "outputs": [
        {
          "internalType": "uint256",
          "name": "id",
          "type": "uint256"
        },
        {
          "internalType": "string",
          "name": "title",
          "type": "string"
        },
        {
          "internalType": "string",
          "name": "author",
          "type": "string"
        },
        {
          "internalType": "string",
          "name": "description",
          "type": "string"
        },
        {
          "internalType": "uint256",
          "name": "createdAt",
          "type": "uint256"
        }
      ],
      "stateMutability": "view",
      "type": "function",
      "constant": true
    },
    {
      "inputs": [
        {
          "internalType": "string",
          "name": "_title",
          "type": "string"
        },
        {
          "internalType": "string",
          "name": "_description",
          "type": "string"
        },
        {
          "internalType": "string",
          "name": "_author",
          "type": "string"
        }
      ],
      "name": "createBook",
      "outputs": [],
      "stateMutability": "nonpayable",
      "type": "function"
    }
  ],
  "bytecode": "0x6080604052600060015534801561001557600080fd5b506109ed806100256000396000f3fe608060405234801561001057600080fd5b50600436106100365760003560e01c80634c7e840e1461003b5780636874404614610057575b600080fd5b61005560048036038101906100509190610462565b61008b565b005b610071600480360381019061006c919061053f565b61013a565b6040516100829594939291906105fa565b60405180910390f35b6040518060a00160405280600160008154809291906100a990610691565b9190505581526020018481526020018281526020018381526020014281525060008060015481526020019081526020016000206000820151816000015560208201518160010190816100fb91906108e5565b50604082015181600201908161011191906108e5565b50606082015181600301908161012791906108e5565b5060808201518160040155905050505050565b600060205280600052604060002060009150905080600001549080600101805461016390610708565b80601f016020809104026020016040519081016040528092919081815260200182805461018f90610708565b80156101dc5780601f106101b1576101008083540402835291602001916101dc565b820191906000526020600020905b8154815290600101906020018083116101bf57829003601f168201915b5050505050908060020180546101f190610708565b80601f016020809104026020016040519081016040528092919081815260200182805461021d90610708565b801561026a5780601f1061023f5761010080835404028352916020019161026a565b820191906000526020600020905b81548152906001019060200180831161024d57829003601f168201915b50505050509080600301805461027f90610708565b80601f01602080910402602001604051908101604052809291908181526020018280546102ab90610708565b80156102f85780601f106102cd576101008083540402835291602001916102f8565b820191906000526020600020905b8154815290600101906020018083116102db57829003601f168201915b5050505050908060040154905085565b6000604051905090565b600080fd5b600080fd5b600080fd5b600080fd5b6000601f19601f8301169050919050565b7f4e487b7100000000000000000000000000000000000000000000000000000000600052604160045260246000fd5b61036f82610326565b810181811067ffffffffffffffff8211171561038e5761038d610337565b5b80604052505050565b60006103a1610308565b90506103ad8282610366565b919050565b600067ffffffffffffffff8211156103cd576103cc610337565b5b6103d682610326565b9050602081019050919050565b82818337600083830152505050565b6000610405610400846103b2565b610397565b90508281526020810184848401111561042157610420610321565b5b61042c8482856103e3565b509392505050565b600082601f8301126104495761044861031c565b5b81356104598482602086016103f2565b91505092915050565b60008060006060848603121561047b5761047a610312565b5b600084013567ffffffffffffffff81111561049957610498610317565b5b6104a586828701610434565b935050602084013567ffffffffffffffff8111156104c6576104c5610317565b5b6104d286828701610434565b925050604084013567ffffffffffffffff8111156104f3576104f2610317565b5b6104ff86828701610434565b9150509250925092565b6000819050919050565b61051c81610509565b811461052757600080fd5b50565b60008135905061053981610513565b92915050565b60006020828403121561055557610554610312565b5b60006105638482850161052a565b91505092915050565b61057581610509565b82525050565b600081519050919050565b600082825260208201905092915050565b60005b838110156105b557808201518184015260208101905061059a565b60008484015250505050565b60006105cc8261057b565b6105d68185610586565b93506105e6818560208601610597565b6105ef81610326565b840191505092915050565b600060a08201905061060f600083018861056c565b818103602083015261062181876105c1565b9050818103604083015261063581866105c1565b9050818103606083015261064981856105c1565b9050610658608083018461056c565b9695505050505050565b7f4e487b7100000000000000000000000000000000000000000000000000000000600052601160045260246000fd5b600061069c82610509565b91507fffffffffffffffffffffffffffffffffffffffffffffffffffffffffffffffff82036106ce576106cd610662565b5b600182019050919050565b7f4e487b7100000000000000000000000000000000000000000000000000000000600052602260045260246000fd5b6000600282049050600182168061072057607f821691505b602082108103610733576107326106d9565b5b50919050565b60008190508160005260206000209050919050565b60006020601f8301049050919050565b600082821b905092915050565b60006008830261079b7fffffffffffffffffffffffffffffffffffffffffffffffffffffffffffffffff8261075e565b6107a5868361075e565b95508019841693508086168417925050509392505050565b6000819050919050565b60006107e26107dd6107d884610509565b6107bd565b610509565b9050919050565b6000819050919050565b6107fc836107c7565b610810610808826107e9565b84845461076b565b825550505050565b600090565b610825610818565b6108308184846107f3565b505050565b5b818110156108545761084960008261081d565b600181019050610836565b5050565b601f8211156108995761086a81610739565b6108738461074e565b81016020851015610882578190505b61089661088e8561074e565b830182610835565b50505b505050565b600082821c905092915050565b60006108bc6000198460080261089e565b1980831691505092915050565b60006108d583836108ab565b9150826002028217905092915050565b6108ee8261057b565b67ffffffffffffffff81111561090757610906610337565b5b6109118254610708565b61091c828285610858565b600060209050601f83116001811461094f576000841561093d578287015190505b61094785826108c9565b8655506109af565b601f19841661095d86610739565b60005b8281101561098557848901518255600182019150602085019450602081019050610960565b868310156109a2578489015161099e601f8916826108ab565b8355505b6001600288020188555050505b50505050505056fea2646970667358221220e3e61d4dcd3f91ffeea6120578fedfadd4e7765de92531441cc71dfa97d38a7e64736f6c63430008130033",
  "immutableReferences": {},
  "source": "// SPDX-License-Identifier: MIT\n\npragma solidity 0.8.19;\n\ncontract BookContract {\n    struct Book {\n        uint id;\n        string title;\n        string author;\n        string description;\n        uint createdAt;\n    }\n\n    mapping(uint => Book) public books;\n\n    uint internal nextBookId = 0;\n\n    function createBook(\n        string memory _title,\n        string memory _description,\n        string memory _author\n    ) public {\n        books[nextBookId] = (\n            Book({\n                id: nextBookId++,\n                title: _title,\n                author: _author,\n                description: _description,\n                createdAt: block.timestamp\n            })\n        );\n    }\n\n    // function getBook() {}\n\n    // function updateBook() {}\n\n    // function deleteBook() {}\n}\n",
  "sourcePath": "/home/genaro/dev/real-projects/books-dapp/contracts/BookContract.sol",
  "compiler": {
    "name": "solc",
    "version": "0.8.19+commit.7dd6d404.Emscripten.clang"
  },
  "schemaVersion": "3.4.14",
  "updatedAt": "2023-07-07T13:20:10.241Z",
  "networkType": "ethereum",
  "devdoc": {
    "kind": "dev",
    "methods": {},
    "version": 1
  },
  "userdoc": {
    "kind": "user",
    "methods": {},
    "version": 1
  }
}