{
  "contractName": "BookContract",
  "abi": [
    {
      "inputs": [
        {
          "internalType": "uint256",
          "name": "",
          "type": "uint256"
        }
      ],
      "name": "books",
      "outputs": [
        {
          "internalType": "uint256",
          "name": "id",
          "type": "uint256"
        },
        {
          "internalType": "string",
          "name": "title",
          "type": "string"
        },
        {
          "internalType": "string",
          "name": "author",
          "type": "string"
        },
        {
          "internalType": "string",
          "name": "description",
          "type": "string"
        },
        {
          "internalType": "uint256",
          "name": "createdAt",
          "type": "uint256"
        }
      ],
      "stateMutability": "view",
      "type": "function",
      "constant": true
    },
    {
      "inputs": [
        {
          "internalType": "string",
          "name": "_title",
          "type": "string"
        },
        {
          "internalType": "string",
          "name": "_description",
          "type": "string"
        },
        {
          "internalType": "string",
          "name": "_author",
          "type": "string"
        }
      ],
      "name": "createBook",
      "outputs": [],
      "stateMutability": "nonpayable",
      "type": "function"
    },
    {
      "inputs": [
        {
          "internalType": "uint256",
          "name": "_id",
          "type": "uint256"
        },
        {
          "internalType": "string",
          "name": "_title",
          "type": "string"
        },
        {
          "internalType": "string",
          "name": "_description",
          "type": "string"
        }
      ],
      "name": "updateBook",
      "outputs": [],
      "stateMutability": "nonpayable",
      "type": "function"
    },
    {
      "inputs": [
        {
          "internalType": "uint256",
          "name": "_id",
          "type": "uint256"
        }
      ],
      "name": "deleteBook",
      "outputs": [],
      "stateMutability": "nonpayable",
      "type": "function"
    },
    {
      "inputs": [
        {
          "internalType": "uint256",
          "name": "_id",
          "type": "uint256"
        }
      ],
      "name": "findBookIndex",
      "outputs": [
        {
          "internalType": "uint256",
          "name": "",
          "type": "uint256"
        }
      ],
      "stateMutability": "view",
      "type": "function",
      "constant": true
    }
  ],
  "bytecode": "0x6080604052600060015534801561001557600080fd5b50610d2f806100256000396000f3fe608060405234801561001057600080fd5b50600436106100575760003560e01c80632151fb381461005c5780634c7e840e1461007857806368744046146100945780637909086b146100c8578063a65139dc146100f8575b600080fd5b61007660048036038101906100719190610582565b610114565b005b610092600480360381019061008d91906106f5565b61017a565b005b6100ae60048036038101906100a99190610582565b610229565b6040516100bf95949392919061082a565b60405180910390f35b6100e260048036038101906100dd9190610582565b6103f7565b6040516100ef9190610892565b60405180910390f35b610112600480360381019061010d91906108ad565b610482565b005b600061011f826103f7565b905060008082815260200190815260200160002060008082016000905560018201600061014c91906104db565b60028201600061015c91906104db565b60038201600061016c91906104db565b600482016000905550505050565b6040518060a001604052806001600081548092919061019890610967565b9190505581526020018481526020018281526020018381526020014281525060008060015481526020019081526020016000206000820151816000015560208201518160010190816101ea9190610bbb565b5060408201518160020190816102009190610bbb565b5060608201518160030190816102169190610bbb565b5060808201518160040155905050505050565b6000602052806000526040600020600091509050806000015490806001018054610252906109de565b80601f016020809104026020016040519081016040528092919081815260200182805461027e906109de565b80156102cb5780601f106102a0576101008083540402835291602001916102cb565b820191906000526020600020905b8154815290600101906020018083116102ae57829003601f168201915b5050505050908060020180546102e0906109de565b80601f016020809104026020016040519081016040528092919081815260200182805461030c906109de565b80156103595780601f1061032e57610100808354040283529160200191610359565b820191906000526020600020905b81548152906001019060200180831161033c57829003601f168201915b50505050509080600301805461036e906109de565b80601f016020809104026020016040519081016040528092919081815260200182805461039a906109de565b80156103e75780601f106103bc576101008083540402835291602001916103e7565b820191906000526020600020905b8154815290600101906020018083116103ca57829003601f168201915b5050505050908060040154905085565b600080600090505b6001548110156104415782600080838152602001908152602001600020600001540361042e578091505061047d565b808061043990610967565b9150506103ff565b506040517f08c379a000000000000000000000000000000000000000000000000000000000815260040161047490610cd9565b60405180910390fd5b919050565b600061048d846103f7565b90508260008083815260200190815260200160002060010190816104b19190610bbb565b508160008083815260200190815260200160002060030190816104d49190610bbb565b5050505050565b5080546104e7906109de565b6000825580601f106104f95750610518565b601f016020900490600052602060002090810190610517919061051b565b5b50565b5b8082111561053457600081600090555060010161051c565b5090565b6000604051905090565b600080fd5b600080fd5b6000819050919050565b61055f8161054c565b811461056a57600080fd5b50565b60008135905061057c81610556565b92915050565b60006020828403121561059857610597610542565b5b60006105a68482850161056d565b91505092915050565b600080fd5b600080fd5b6000601f19601f8301169050919050565b7f4e487b7100000000000000000000000000000000000000000000000000000000600052604160045260246000fd5b610602826105b9565b810181811067ffffffffffffffff82111715610621576106206105ca565b5b80604052505050565b6000610634610538565b905061064082826105f9565b919050565b600067ffffffffffffffff8211156106605761065f6105ca565b5b610669826105b9565b9050602081019050919050565b82818337600083830152505050565b600061069861069384610645565b61062a565b9050828152602081018484840111156106b4576106b36105b4565b5b6106bf848285610676565b509392505050565b600082601f8301126106dc576106db6105af565b5b81356106ec848260208601610685565b91505092915050565b60008060006060848603121561070e5761070d610542565b5b600084013567ffffffffffffffff81111561072c5761072b610547565b5b610738868287016106c7565b935050602084013567ffffffffffffffff81111561075957610758610547565b5b610765868287016106c7565b925050604084013567ffffffffffffffff81111561078657610785610547565b5b610792868287016106c7565b9150509250925092565b6107a58161054c565b82525050565b600081519050919050565b600082825260208201905092915050565b60005b838110156107e55780820151818401526020810190506107ca565b60008484015250505050565b60006107fc826107ab565b61080681856107b6565b93506108168185602086016107c7565b61081f816105b9565b840191505092915050565b600060a08201905061083f600083018861079c565b818103602083015261085181876107f1565b9050818103604083015261086581866107f1565b9050818103606083015261087981856107f1565b9050610888608083018461079c565b9695505050505050565b60006020820190506108a7600083018461079c565b92915050565b6000806000606084860312156108c6576108c5610542565b5b60006108d48682870161056d565b935050602084013567ffffffffffffffff8111156108f5576108f4610547565b5b610901868287016106c7565b925050604084013567ffffffffffffffff81111561092257610921610547565b5b61092e868287016106c7565b9150509250925092565b7f4e487b7100000000000000000000000000000000000000000000000000000000600052601160045260246000fd5b60006109728261054c565b91507fffffffffffffffffffffffffffffffffffffffffffffffffffffffffffffffff82036109a4576109a3610938565b5b600182019050919050565b7f4e487b7100000000000000000000000000000000000000000000000000000000600052602260045260246000fd5b600060028204905060018216806109f657607f821691505b602082108103610a0957610a086109af565b5b50919050565b60008190508160005260206000209050919050565b60006020601f8301049050919050565b600082821b905092915050565b600060088302610a717fffffffffffffffffffffffffffffffffffffffffffffffffffffffffffffffff82610a34565b610a7b8683610a34565b95508019841693508086168417925050509392505050565b6000819050919050565b6000610ab8610ab3610aae8461054c565b610a93565b61054c565b9050919050565b6000819050919050565b610ad283610a9d565b610ae6610ade82610abf565b848454610a41565b825550505050565b600090565b610afb610aee565b610b06818484610ac9565b505050565b5b81811015610b2a57610b1f600082610af3565b600181019050610b0c565b5050565b601f821115610b6f57610b4081610a0f565b610b4984610a24565b81016020851015610b58578190505b610b6c610b6485610a24565b830182610b0b565b50505b505050565b600082821c905092915050565b6000610b9260001984600802610b74565b1980831691505092915050565b6000610bab8383610b81565b9150826002028217905092915050565b610bc4826107ab565b67ffffffffffffffff811115610bdd57610bdc6105ca565b5b610be782546109de565b610bf2828285610b2e565b600060209050601f831160018114610c255760008415610c13578287015190505b610c1d8582610b9f565b865550610c85565b601f198416610c3386610a0f565b60005b82811015610c5b57848901518255600182019150602085019450602081019050610c36565b86831015610c785784890151610c74601f891682610b81565b8355505b6001600288020188555050505b505050505050565b7f426f6f6b206e6f7420666f756e64000000000000000000000000000000000000600082015250565b6000610cc3600e836107b6565b9150610cce82610c8d565b602082019050919050565b60006020820190508181036000830152610cf281610cb6565b905091905056fea2646970667358221220f98a22d24aad57ac49521c8bc70f791df84591e3ef4cd8f1d8865ddfb5ae12a264736f6c63430008130033",
  "immutableReferences": {},
  "source": "// SPDX-License-Identifier: MIT\n\npragma solidity 0.8.19;\n\ncontract BookContract {\n    struct Book {\n        uint id;\n        string title;\n        string author;\n        string description;\n        uint createdAt;\n    }\n\n    mapping(uint => Book) public books;\n\n    uint internal nextBookId = 0;\n\n    function createBook(\n        string memory _title,\n        string memory _description,\n        string memory _author\n    ) public {\n        books[nextBookId] = (\n            Book({\n                id: nextBookId++,\n                title: _title,\n                author: _author,\n                description: _description,\n                createdAt: block.timestamp\n            })\n        );\n    }\n\n    function updateBook(\n        uint _id,\n        string memory _title,\n        string memory _description\n    ) public {\n        uint index = findBookIndex(_id);\n\n        books[index].title = _title;\n        books[index].description = _description;\n    }\n\n    function deleteBook(uint _id) public {\n        uint index = findBookIndex(_id);\n\n        delete books[index];\n    }\n\n    function findBookIndex(uint _id) public view returns (uint) {\n        for (uint i = 0; i < nextBookId; i++) {\n            if (books[i].id == _id) {\n                return i;\n            }\n        }\n\n        revert(\"Book not found\");\n    }\n}\n",
  "sourcePath": "/home/genaro/dev/real-projects/books-dapp/contracts/BookContract.sol",
  "compiler": {
    "name": "solc",
    "version": "0.8.19+commit.7dd6d404.Emscripten.clang"
  },
  "schemaVersion": "3.4.14",
  "updatedAt": "2023-07-07T16:01:15.419Z",
  "networkType": "ethereum",
  "devdoc": {
    "kind": "dev",
    "methods": {},
    "version": 1
  },
  "userdoc": {
    "kind": "user",
    "methods": {},
    "version": 1
  }
}